:0300000002086E85
:10002B00020417546F3D207878432020546A3D78A2
:10003B0078432000537878782C7878202052787881
:10004B00782C7878002020200020200053005200CC
:10005B0053544F50202020202020202020200052BD
:10006B00414D5020534F414B20202000534F414BCB
:10007B0020202020202020200052414D5020504590
:10008B00414B202020005245464C4F57202020202A
:10009B00202000434F4F4C49472020202020200098
:1000AB002020202020202020202020202020202045
:1000BB00200020546F20495320544F4F204C4F5752
:0400CB0021202000D0
:1000CF00C0E0C0D0C000C001C002E4F538F539F57A
:1000DF003AF53BF53C7A20E533A2E779047830E630
:1000EF0033F608D9FA79057838E636D4F608D9F90F
:1000FF00DAE5D002D001D000D0D0D0E022C0E0C0ED
:10010F00D0C000C001C002E4F538F539F53AF53B2F
:10011F00F53C7A20E533A2E779047830E633F60828
:10012F00D9FA79057838C0D0E6243320E70224D0F5
:10013F0020E30224FDD0D033F608D9EADAD6D00274
:10014F00D001D000D0D0D0E022C0E0C0D0C000C0DD
:10015F0001C0027A207905C3783CE613C0D030E79E
:10016F000224D030E30224FDF618D0D0D9EC790464
:10017F007833E613F618D9FADADBD002D001D000C3
:10018F00D0D0D0E022C0E0C0D0E5302534F530E546
:10019F00313535F531E5323536F532E5333537F56D
:1001AF0033D0D0D0E022C0E0C0D0C3E5309534F5D5
:1001BF0030E5319535F531E5329536F532E5339544
:1001CF0037F533D0D0D0E022C0E0C0D0C3E53095B2
:1001DF0034E5319535E5329536E53395379205D0CF
:1001EF00D0D0E022C0E0C0D0C3E5349530E53595DE
:1001FF0031E5369532E53795339205D0D0D0E022F0
:10020F00C0E0C0D0C205C3E53495307014E5359514
:10021F0031700EE53695327008E53795337002D29E
:10022F0005D0D0D0E02212020F2005030201F322E5
:10023F0012020F2005030201D722C0E0C0F0C0D088
:10024F00C000C001C002C003E5308534F0A4F8A996
:10025F00F0E5318534F0A429F9E435F0FAE530857D
:10026F0035F0A429F9E5F03AFAE433FBE5328534A9
:10027F00F0A42AFAE5F03BFBE5318535F0A42AFA24
:10028F00E5F03BFBE5308536F0A42AFAE5F03BFBC1
:10029F00E5338534F0A42BFBE5328535F0A42BFB39
:1002AF00E5318536F0A42BFBE5308537F0A42BFB29
:1002BF008B338A3289318830D003D002D001D000FD
:1002CF00D0D0D0F0D0E022C0E0C0D0C000C001C07C
:1002DF0002C003C0047C20E4F8F9FAFBC3E5303315
:1002EF00F530E53133F531E53233F532E53333F5BA
:1002FF0033E833F8E933F9EA33FAEB33FBC3E89524
:10030F0034E99535EA9536EB95374013E89534F88F
:10031F00E99535F9EA9536FAEB9537FB433001DC71
:10032F00BBD004D003D002D001D000D0D0D0E02277
:10033F00C000788500D8FDD00022C000C001792808
:10034F007868D8FED9FADAF6D001D00022D294120A
:10035F00033FC29422A2E79283A2E69282A2E59281
:10036F0081A2E4928012035C12033FA2E39283A264
:10037F00E29282A2E19281A2E0928012035C22D2E9
:10038F0092020364C292020364C294C0027A2812DA
:10039F000349D002743312039374331203937432EC
:1003AF001203937428120393740C120393740112A3
:1003BF000393C0027A02120349D00222E49360062B
:1003CF0012038EA380F62244404480020393C0E0C0
:1003DF00E8C4540F443012038EE8540F4430120314
:0403EF008ED0E022AA
:1003F30075C80075CDBF75CC2843C98075CBBF7553
:10040300CA28E4F55DF55EF55AF55B755800439B24
:1004130080D2CA22C2CFC0E0C0D0055AE55A7004C8
:10042300055B8021E55AB40A1CE55BB40017E4F5CB
:100433005AF55B0558C3E5549558B39296E558B4FD
:100443006403755800055DE55D7004055E8000E595
:100453005DB4E81CE55EB40317E55DB4E812E55E40
:10046300B4030DE4F55DF55EE5572401F557055634
:10047300D0D0D0E03275AC0075AD0075B30075B463
:100483000075B10075B200C28C438E085389F043E6
:100493008901438E1043878075985253C4DF538973
:1004A3000F438920758DF7D28E1203F375590075AA
:1004B30052967550107553C875511043B32253B4F7
:1004C300DD53E8F043E80575F60043F62143E10107
:1004D300D2AF22C28CC28D758CBF758A28D28C3064
:1004E3008DFD221204D6DAFB2220030122240122ED
:1004F30020040122C3940122E4936003A380F92220
:100503002003012224012220040122C3940122E5B5
:1005130059B40016C0E0740E141203D6D0E0C0E044
:10052300742C12038ED0E00205D0C0E074011412C3
:1005330003D6D0E0B40116E55212050312050AF5FD
:1005430052C0E0743D12038ED0E00205D0C0E074C7
:100553005212038ED0E0C0E07405141203D6D0E02B
:10056300B40216E5501204EC1204F3F550C0E07423
:100573003D12038ED0E00205D0C0E0742C12038E2E
:10058300D0E0C0E0740A141203D6D0E0B40315E53A
:100593005312050312050AF553C0E0743D12038E8E
:1005A300D0E08029C0E0745312038ED0E0C0E07421
:1005B3000E141203D6D0E0B40413E5511204EC1266
:1005C30004F3F551C0E0743D12038ED0E022D20053
:1005D300D201D202D203D204D295C292C280C28186
:1005E300C283C2822095437A0A12085B20953BD2CC
:1005F30092D280D281D283D282C292A2959200D229
:1006030092C280A2959201D280C281A2959202D217
:1006130081C283A2959203D283C282A2959204D20D
:100623008230000730011030021622C0E07401F559
:1006330055755700D0E022C0E07400F555D0E02294
:10064300E5592401D4B405057559008004F559E42E
:100653002222C0E07402141203D6D0E0E55212073E
:100663009EC0E07406141203D6D0E0E5501207BA18
:10067300C0E07408141203D6D0E0E55812079EC0F8
:10068300E0740B141203D6D0E0E55312079EC0E0CA
:10069300740F141203D6D0E0E5511207BA22C2EF49
:1006A300D2EE30EFFDC0E0E5C3C4C0E0540FF9D093
:1006B300E054F045C2F88830893175320075330053
:1006C30075345C7535C1753600753700120249758E
:1006D30034FF75350F7536007537001202D6753441
:1006E300A475356A7536007537001201B575346423
:1006F3007535007536007537001202491200CFC0F8
:10070300E0740D141203D8D0E0120712D0E022C017
:1007130000A83A1203DDD000C0E0742E12038ED07D
:10072300E0C000A8391203DDD000C000A8381203CE
:10073300DDD00022C0E0740D141203D8D0E0C0E075
:10074300743212038ED0E0C0E0743212038ED0E014
:10075300C2EFD2EE30EFFDE5C2540FF8E5C3C4C0DB
:10076300E0540FF9D0E054F048F8227530007531A9
:10077300007532007533007DC81207537537007555
:10078300360089358834120194DDEE7534C8753529
:10079300007536007537001202D62275F064844462
:1007A3003012038EE5F075F00A84443012038EE5AF
:1007B300F0443012038E2275F00A84443012038E03
:1007C300E5F0443012038E22E53FC0E074041412B6
:1007D30003D8D0E012079E220D0A0053E8F043E845
:1007E30000120753883D893E53E8F043E80512079A
:1007F3006E883089317532007533007534DC753598
:10080300A0753600753700120249853D34853E35A3
:100813007536007537001202D675340375350075C9
:1008230036007537001202D67534297535007536D2
:10083300007537001202D67534167535007536000B
:1008430075370012019485303F1200CF1207CB7A1F
:100853003212085B1207DE22C001C00079C8786833
:10086300D8FED9FADAF6D000D0012275817F1204BE
:1008730078120398C0E07401141203D8D0E0C08347
:10088300C082C0E090002E1203CBD0E0D082D08390
:10089300120737C0E07401141203D6D0E0C083C03E
:1008A30082C0E090003F1203CBD0E0D082D08375AA
:1008B300550075540012065580F81207DE120737EB
:1008C300120512E555B4000C1205D11206557556E2
:1008D300000208BDC0E0740D141203D6D0E0E55742
:1008E30012079EC0E0747312038ED0E0E555B40185
:1008F3003AC0E07401141203D6D0E0C083C082C0B2
:10090300E090006A1203CBD0E0D082D0831205D1ED
:10091300755432E557C3B43C005013E552C3953FB9
:1009230050067555027556000208BD020981C3F5CC
:100933003F9432400302091E755500C0E074011450
:100943001203D6D0E0C083C082C0E09000BD120382
:10095300CBD0E0D082D0837AC812085B12085BC088
:10096300E07401141203D6D0E0C083C082C0E090CB
:10097300003F1203CBD0E0D082D0830208BDE555FF
:10098300B4022FC0E07401141203D6D0E0C083C0B8
:1009930082C0E09000771203CBD0E0D082D08312E4
:1009A30005D1755414E550C395565003755503028C
:1009B30008BDE555B40332C0E07401141203D6D068
:1009C300E0C083C082C0E09000841203CBD0E0D0AB
:1009D30082D0831205D1755464E553C3953F500605
:1009E3007555047556000208BDE555B40432C0E0E0
:1009F3007401141203D6D0E0C083C082C0E090001B
:100A0300911203CBD0E0D082D0831205D175541458
:100A1300E551C3955650067555057556000208BD38
:100A23001207DE120737C0E07401141203D6D0E0B8
:100A3300C083C082C0E090009E1203CBD0E0D0827E
:100A4300D0831205D17554007460C3953F403E7541
:100A53005500755600C0E07401141203D6D0E0C0EF
:100A630083C082C0E09000AB1203CBD0E0D082D031
:100A730083C0E07401141203D6D0E0C083C082C0E7
:100A8300E090003F1203CBD0E0D082D0830208BDB8
:00000001FF
